:020000040010EA
:1000000000040020190C1000610C1000610C10009D
:1000100000000000000000000000000000000000E0
:10002000000000000000000000000000610C100053
:100030000000000000000000610C1000610C1000C6
:10004000610C1000610C1000610C1000610C1000BC
:10005000610C1000610C1000610C10000000000029
:10006000610C1000610C1000610C1000610C10009C
:10007000610C1000610C1000610C1000610C10008C
:10008000610C100000000000610C1000610C1000F9
:10009000610C1000610C100000000000A3041000AF
:1000A000610C100000000000610C1000610C1000D9
:1000B000610C1000610C1000610C1000A02213B53F
:1000C0001E4B1F4C0193236AD202002013421BD106
:1000D000802000031840424250411A4A40421040DA
:1000E000194A80189A030FD4DA05D20D023280081B
:1000F00050431A0401A9920F8A5C9904C90E023177
:10010000514300F039FD8000072223691340022B80
:1001100005D04008012B02D00C4A9B0098580F23B1
:10012000A1690B4C1940013100F026FD094B0A4929
:10013000C01800F021FD206013BDC046010202047A
:1001400000020050009B65FF00805101840C1000EC
:100150000000002020A1070040420F0000230F21D3
:10016000084A9A1812680A40824206D1064A9B1829
:10017000022219680A431A6070471033802BEFD1AE
:10018000FAE7C046080506400C050640002310B5F6
:10019000934200D110BDCC5CC4540133F8E7F8B5EC
:1001A000164D03006F680C00154A16491648174E85
:1001B000A74213D26F68DF190F606F68E41B4C60B1
:1001C0008021146821431160006811496A68401851
:1001D0001900FFF7DBFF6B683360F8BD00254D6049
:1001E0000D6080211568294311600068084A1900D4
:1001F00080182200FFF7CAFF3460EEE700000020FD
:1002000008050640180000200005064004050640C9
:10021000000106400022054B9A60D8601A615961BE
:10022000034B5A68034B1A607047C0461800002001
:100230000000002014050640F0B50125194B1A4EA8
:100240001C68A407E40F6C40240509191419A14285
:1002500010D2CA055960D70D002A18D121280AD01A
:10026000DF601D611A692A42FCD140271A683A42B0
:1002700011D01A60F0BD2222DA60213A1A611F699A
:100280001742FCD12122DA6032689A60E9E7D8602F
:100290002128E6D1F8E7002801D19A6832600436B7
:1002A0000431D4E700C000506C000020F7B50026F0
:1002B0006F4668465E4908225E4C7E70FFF766FF17
:1002C0003B7878787988FD887F2B46D9032807D03A
:1002D000052824D002282CD00020FFF73FFF27E07C
:1002E000631DD97F621C032911D15020511CD67780
:1002F0000422C877E11CCE77211DCE77DA77200063
:1003000006212030FFF74BFF002108000EE00629F0
:10031000F5D1D6770222DA77E31D013AEEE7200025
:1003200001212430FFF73BFF31003000FFF772FF5F
:10033000F7BD631DDA7F022A6BD0092AF8D1002DA0
:100340006BD102230534E377F2E7890200204A19D2
:10035000FFF772FF29003848D4E70628BCD800F020
:1003600001FC0420BBBB39BB4300601DC27F651C80
:10037000092A11D89B239B00D34001210B420BD0AB
:1003800002230022C3778020A31DDA772A4BC00006
:100390000734EA771A50E17700210800FFF7FFFEE3
:1003A000C6E7631DDB7F022B02D0052B00D093E74D
:1003B000002D09D02048214B0534C152023BC552C3
:1003C00003232900E377B1E7062305342900280039
:1003D000E377E3E700200222631CD877631D06342D
:1003E0000100DA77E077D9E7611DCA7F601C092A2E
:1003F0009ED89B239B00D340DB0799D50223CB7764
:10040000802100220C4B0634C900C277E2775A5093
:100410008EE7002D95D00922DA77A36A9B0A013B6B
:100420008B4292D20223002105340800E37769E76A
:1004300030000020180000206C00002002040000A2
:10044000044A0549CB680340984202D0013A002A89
:10045000F8D1704781F520000002005010B500244B
:100460000C482100446004600461C4604461C462BB
:100470000822183000F0C8FB8021074A23019B188E
:100480001A6801348A431A60082CF6D10022034B03
:100490009A6010BD180000200805064000000640C4
:1004A00070470423F7B5A04C666825691E4209D041
:1004B00063606369DB0700D484E092232269DB0078
:1004C0001343236101231E4236D063601D4226D0B0
:1004D00092232269DB0013432361FFF7BFFF9022C1
:1004E000924B92001A600822914B1A608822914B1D
:1004F00092001A60904BD93AFF3A1A6080238F4AD3
:100500009B0013608E4A13608E4A13608E4A1360FC
:100510008E4A13608E4A136040228E4B1A60AB07DE
:1005200003D510222369934323616D0704D59223D9
:100530002269DB001343236108231E4200D063605D
:1005400002273E4264D08023002E00DB10E11B0610
:1005500063600123804E814C326881481A433260C7
:10056000226880491343236008227F4DFFF70EFE67
:1005700060232A7E1340202B00D1C8E0402B47D0B7
:10058000002B00D0C9E052B2687E2B606B60002A5D
:1005900063DA06285BD12A00E97F30321370AB7F23
:1005A00009021943EB7E032B48D00FD8012B24D02E
:1005B000BB422ED0022332681A43326022681343B2
:1005C000236025E08022236993437AE7222BF1D12F
:1005D0006F6B2C7F3B69A4001E59B1420AD9634B53
:1005E0003000596800F004FB002902D101233035A6
:1005F0002B703100FB68185904E0122900D9122130
:100600006B6B1868FFF7CBFD00210800FFF702FEB7
:10061000F7BD6B6B5E68F478B37824021C43A1428B
:100620000AD9524B2000596800F0E2FA002902D1A1
:10063000012330352B7021003000E3E7AB7E032B24
:1006400005D86A6B9B0092689E583478E7E7336858
:100650003B43336023683B43B2E701380A28A9D8FB
:1006600000F080FA06A841A837A8A8A83AA84E002A
:10067000AB7E002B27D10F242A7F022722401600B1
:1006800080229446ED6A29491A01511808682040D1
:10069000B0420CD101209840054208D12E481218D2
:1006A0001068B843106060460A6882430A600133EC
:1006B000082BE8D180231D4A11680B4313600022E8
:1006C000244B1A60A4E7012BF4D1002338352B709A
:1006D000F0E7AB7EEB63EDE7AB7E2B640021080017
:1006E000FFF798FDE6E7AB7E002B05D1287F0F339F
:1006F0001840FFF733FDDDE7012BDBD13835E6E7A6
:10070000AB7E6B64AB6C002BE8D09847E6E7EB6CF4
:10071000002B00D17CE798477AE733683B4333608E
:1007200023681F43276073E7000006400805064062
:100730000005064018050640100506402005064045
:10074000300506404005064050050640600506405D
:1007500070050640040506400C0506401C050640D1
:10076000300000200001064018000020000000209A
:100770005B021E421ED03D4D63606B68002B49D06A
:100780002B683B4F696801937A683A4B186891422D
:1007900034D9394B7A68C0180199FFF7F7FC7B68A8
:1007A000364A13607B68019AD3182B607A686B68AD
:1007B0009B1A6B6080239B021E4200D128E7636076
:1007C0002A4C226963699A4200D321E72C4B2D4EB3
:1007D000E76835681968284B2A003800C918FFF700
:1007E000D5FC23697F19ED18256122696369E760EB
:1007F0009A4227D21E4B5B68336009E71E4B6A683A
:10080000C0180199FFF7C2FC6B681C4A13600023F3
:100810002B60CEE72B7E002B0BD16B7E052B08D1F6
:10082000A268EB6B9A4204D0A368002B01D1EB6B5A
:10083000A36030352B78002BBCD000230F4A136007
:100840002B70B7E7631DDA7F032A07D101235034E9
:10085000237000210800FFF7A2FCD9E6062AF8D190
:10086000043ADA7701230734E377F2E7180000202F
:100870000000002000050640000106400405064077
:100880001005064014050640F7B5592116208824A6
:10089000944B5A68012A00D00AE1996B924A0426C7
:1008A000114088225205914C0A439A632368102014
:1008B00033432360FFF7C4FD8023012700255B023B
:1008C00023622368102033432360FFF7B9FD7F4282
:1008D00000953100864800F04FF9864B864AC318D0
:1008E000934223D8AC4639000225844B42001B1AA0
:1008F0005B000193824F834BD7199F420CD8824BE8
:10090000019F9A4201D9814BD718B94204D9009668
:10091000002F0BD0AC463900019B01351B1A019307
:100920007B4B12189D42E5D165460F000136222E01
:10093000CFD18C22009B023D023B5B022B4304255E
:100940001203134323620420FFF77AFD0420FFF70C
:1009500077FDE668236810202B432360FFF770FDC6
:1009600007210F2223690B432361A3699343A361EA
:10097000022322698A4313432361FFF79FFBF60694
:1009800002D42368AB432360F021624A624E1368AD
:10099000624F8B4313608023614A1B0511680B4330
:1009A0001360FFF78BFB042362685E4D13436360A3
:1009B000492332685C4C1343336080231B02AB62D3
:1009C0005A4B5B4A6B635B4B0092EB640023AB6456
:1009D00040335360FA23DB00236101233A6880210E
:1009E0001343802292203B60534B12041A60236908
:1009F00049000B4323612369C00003432361FFF7D0
:100A00002DFD80219220236949000B432361236936
:100A1000C0000099034323610B68484A5A43484B7E
:100A20005A6000229A6005321A60802252021968C8
:100A30001142FCD0002201211A603B688B433B60CD
:100A40001023FF33636021683E4F0B4390212360E6
:100A50003D4B8900A261196008213C4B1960882137
:100A60003B4B890019603B4BD939FF3919606B1C2E
:100A7000DA7746396B1DD9778023DB00FA50EB1DFE
:100A8000DC7F002C18D0A0230322DB055A603368DA
:100A9000023A934333603368013293433360BFF3C8
:100AA0004F8F2D4B2D4ADA60BFF34F8FC046FDE7C5
:100AB000596058605C60ECE62B0050331A78002ACD
:100AC0000ED01C70264B2120F95A023BFA5A89029B
:100AD0005218FFF7B1FB05226B1CDC776B1DDA7730
:100AE00030BFCCE7FC000050FFFFFF880002005041
:100AF00000805101FF95E7FFFEB9DB0000D8B80583
:100B0000001F0AFA00E1F50500B0710B00508EF4E9
:100B1000020200001802005000C000509000064081
:100B2000080200501800002000000640A40C10002D
:100B300000000020AD02100000E100E0A0860100EE
:100B400010E000E06C0000200805064000050640AB
:100B5000180506401005064000ED00E00400FA0507
:100B60000204000002B471464908490009564900D0
:100B70008E4402BC7047C046002934D001230022B5
:100B800010B488422CD301242407A14204D281420C
:100B900002D209011B01F8E7E400A14204D281421C
:100BA00002D249005B00F8E7884201D3401A1A4399
:100BB0004C08A04202D3001B5C0822438C08A042D0
:100BC00002D3001B9C082243CC08A04202D3001B86
:100BD000DC082243002803D01B0901D00909E3E700
:100BE000100010BC704701B5002000F00BF802BDEA
:100BF0000029F8D003B5FFF7C1FF0EBC4243891AA4
:100C00001847C0467047C04603008218934200D17F
:100C1000704719700133F9E7124859210160162114
:100C2000016088210160104A1049116000210160B3
:100C30000F481049104A914204D003680B600430F9
:100C40000431F8E70D490E4A0020914203D00860B4
:100C500004319142FBD3FFF723FCFFF715FEFEE7BB
:100C6000FEE7C0460001005024000050A55A0000D5
:100C7000100D1000000000201800002018000020B7
:100C800074040020001BB7000000000080F0FA028E
:100C9000102700000000000000000000000000001D
:100CA00000805101FD0C1000E20C10000800002033
:100CB00000000000000000000000000004033100FC
:100CC0000E034E0075005F004400460055001003FF
:100CD0004E00750076006F0074006F006E00040314
:100CE000090409021B000101008032090400000010
:100CF000FE01010009210BFF000004100112010098
:100D000002000000401604F0BD00010102030100D2
:100D10003200000008000000DE0C1000CE0C1000B5
:080D2000C00C1000BC0C100017
:0400000500100C19C2
:00000001FF
