:020000040010EA
:1000000000040020A90C1000F10C1000F10C1000ED
:1000100000000000000000000000000000000000E0
:10002000000000000000000000000000F10C1000C3
:100030000000000000000000F10C1000F10C1000A6
:10004000F10C1000F10C1000F10C1000F10C10007C
:10005000F10C1000F10C1000F10C10000000000079
:10006000F10C1000F10C1000F10C1000F10C10005C
:10007000F10C1000F10C1000F10C1000F10C10004C
:10008000F10C100000000000F10C1000F10C100049
:10009000F10C1000F10C100000000000C30410006F
:1000A000F10C100000000000F10C1000F10C100029
:1000B000F10C1000F10C1000F10C1000A02213B58F
:1000C0001E4B1F4C0193236AD202002013421BD106
:1000D000802000031840424250411A4A40421040DA
:1000E000194A80189A030FD4DA05D20D023280081B
:1000F00050431A0401A9920F8A5C9904C90E023177
:10010000514300F081FD8000072223691340022B38
:1001100005D04008012B02D00C4A9B0098580F23B1
:10012000A1690B4C1940013100F06EFD094B0A49E1
:10013000C01800F069FD206013BDC0460102020432
:1001400000020050009B65FF00805101140D10005B
:100150000000002020A1070040420F0000230F21D3
:10016000084A9A1812680A40824206D1064A9B1829
:10017000022219680A431A6070471033802BEFD1AE
:10018000FAE7C046080506400C050640002310B5F6
:10019000934200D110BDCC5CC4540133F8E7F8B5EC
:1001A000164D03006F680C00154A16491648174E85
:1001B000A74213D26F68DF190F606F68E41B4C60B1
:1001C0008021146821431160006811496A68401851
:1001D0001900FFF7DBFF6B683360F8BD00254D6049
:1001E0000D6080211568294311600068084A1900D4
:1001F00080182200FFF7CAFF3460EEE700000020FD
:1002000008050640180000200005064004050640C9
:10021000000106400022064B9A60D8601A615961BD
:10022000914203D0034B5A68034B1A607047C04693
:10023000180000200000002014050640F0B501253C
:10024000194B1A4E1C68A407E40F6C4024050919C9
:100250001419A14210D2CA055960D70D002A18D12D
:1002600021280AD0DF601D611A692A42FCD140278B
:100270001A683A4211D01A60F0BD2222DA60213A9F
:100280001A611F691742FCD12122DA6032689A6034
:10029000E9E7D8602128E6D1F8E7002801D19A687B
:1002A000326004360431D4E700C0005070000020F2
:1002B000F7B500276E46684675490822754C777079
:1002C000FFF764FF337870787188F5887F2B00D84A
:1002D0006AE0032807D0052846D002284ED0002027
:1002E000FFF73CFF57E0611DCB7F032B30D1F4209B
:1002F000A36AA21CD077E21CF338D0770133221D09
:10030000A362D777052B27D1CB77634A634B644928
:100310009A5A595A203051438022D2009A5A521880
:10032000FFF78CFFA762A36A0133A362052B13D1E9
:100330000622631DDA770023A362A36A0133A36256
:10034000052B09D10222631DDA770023A36203E0A3
:10035000052BE8D0062BF0D0200006212030FFF737
:100360001EFF0021080006E0200001212430FFF7D5
:1003700016FF39003800FFF74DFF0CE0631DDA7FF0
:10038000022A00D174E0092A05D1002D00D074E0C2
:1003900002230534E377F7BD890200204A19FFF7ED
:1003A0004DFF29003D48DAE7062898D800F022FCE6
:1003B0000700230097FF97FF410097FF4B00601D48
:1003C000C27F651C092A11D89B239B00D3400121C1
:1003D0000B420BD002230022C3778020A31DDA77C3
:1003E0002E4BC0003034EA771A50217000210800EB
:1003F000FFF7D5FECFE7631DDB7F022B02D0052B75
:1004000000D06CE7002D0DD02448234A8152023AD7
:100410008552022B01D1224BC552032305342900FA
:10042000E377A8E70623A562053429002800E377CF
:10043000DEE700200222631CD877631D063401002A
:10044000DA77E077D4E7611DCA7F601C092ACDD82E
:100450009B239B00D340DB07C8D50223CB778021A9
:1004600000220E4B0634C900C277E2775A50BDE72E
:10047000002D00D18CE70922DA77E36A9B0A013B61
:100480008B4289D20223002105340800E37766E716
:10049000300000201800002002040000700000203E
:1004A00004040000044A0549CB680340984202D086
:1004B000013A002AF8D1704781F52000000200506F
:1004C00070470423F7B5B94C666827691E4208D007
:1004D00063606369DB0771D592232269DB001343F4
:1004E000236101231E422DD063601F421DD0922341
:1004F00000252269AE48DB001343236129004560D3
:1005000005600561C560456145630822183000F04B
:10051000C3FB8021A74A2B019B181A6801358A4327
:100520001A60082DF6D10023A360BB0703D5102263
:100530002369934323617F0704D592232269DB005B
:100540001343236108231E4200D0636002273E420A
:1005500000D180E08023002E00DB63E11B06636096
:100560000123954E954C3268914D1A4332602268B2
:100570002800134323600023082291491830AB6000
:10058000FFF704FE60232A7E1340202B00D13CE1BC
:10059000402B60D0002B00D03DE12B606B6053B24C
:1005A000687E002B00DBBBE00A282BD800F018FB8C
:1005B000732A2A2A2A2A1A2A0A2A710080222369DF
:1005C00093438DE7AA6B7F4B7D491B68D2B25B18C2
:1005D0001A708023774A11680B43136001227A4B0B
:1005E0001A6034E02F000023E97F3C373B70AB7F7B
:1005F00009021943EB7E032B42D00BD8012B1FD0ED
:10060000022B29D0022332681A4332602268134336
:10061000236020E0222BF5D12E6C2C7F3369A400BF
:100620001D59A94209D9694B2800596800F028FBD7
:10063000002901D101233B702900F368185904E017
:10064000122900D912212B6C1868FFF7A8FD002190
:100650000800FFF7DFFDF7BD2B6C5D68EC78AB7829
:1006600024021C43A14209D9584B2000596800F0CC
:1006700007FB002901D101233B7021002800E4E79A
:10068000AB7E032BBED82A6C9B0092689D582C78B9
:10069000E8E76A6C97E7474C802A1FD12B6C5B68B0
:1006A000DB795A06D20F9B0604D548352B785B00C0
:1006B0001A43D2B2434B42491B685B181A700020A0
:1006C000404B434A1B6801009B1818708023226826
:1006D0001343022223603C4B1A60BAE7812A05D1FA
:1006E000384B374A1B689B180022E7E7822AE6D17D
:1006F0000F2023002A7F374D0240196801409142A4
:1007000009D104332F4A1B682D4912689B075218E0
:10071000DB0F1370D3E71033AB42EED12E4BF1E772
:1007200001380A2800D96DE700F064FA0B006CFF6D
:100730005B006CFF3C006CFF6CFF6CFF58006CFFB3
:100740006800AB7E002B27D10F242A7F022722408E
:100750001600802294466D6B16491A0151180868DC
:100760002040B0420CD101209840054208D11248E7
:1007700012181068B843106060460A6882430A6025
:100780000133082BE8D180230A4A11680B43136018
:1007900000220D4B1A605EE7012BF4D1002348358F
:1007A0002B70F0E7AB7EEB64EDE7C046000006403F
:1007B00018000020080506400C0506401C050640F0
:1007C0000001064000050640040506400000002028
:1007D000010106408805064078050640AB7EAB6304
:1007E000D1E7AB7E002B05D1287F0F331840FFF7F0
:1007F000B5FCC8E7012BC6D14835D1E7AB7E6B64A9
:100800002B6D002BBFD09847BDE76B6D002B00D13F
:1008100021E798471FE733683B43336023681F4352
:10082000276018E75B021E421ED03F4D63606B6875
:10083000002B53D02B683D4F696801937A683C4B7D
:10084000186891423ED93B4B7A68C0180199FFF76E
:100850009DFC7B68384A13607B68019AD3182B6033
:100860007A686B689B1A6B6080239B021E4200D1E2
:10087000F1E6E0222C4D6360E368A9689201134021
:100880008B4248D0E3681340AB602A696B699A4297
:1008900000D3E0E6294B2A4EEF6834681968254BEF
:1008A00022003800C918FFF771FC2B693F19E418C2
:1008B0002C612A696B69EF609A4227D21B4B5B68F7
:1008C0003360C8E61B4B6A68C0180199FFF75EFCED
:1008D0006B68194A136000232B60C4E72B7E002B42
:1008E0000BD16B7E052B08D1A268EB6C9A4204D029
:1008F000A368002B01D1EB6CA3603C352B78002B57
:10090000B2D000230C4A13602B70ADE70021080021
:10091000FFF745FC9FE62A696B699A4200D39AE685
:10092000024B5A68064B35E71800002000000020F3
:10093000000506400001064004050640100506407B
:1009400014050640F7B5592116208824854B5A68AE
:10095000012A00D0FEE0996B834A042611408822C8
:100960005205824C0A439A63236810203343236064
:10097000FFF798FD8023012700255B02236223688F
:10098000102033432360FFF78DFD7F420095310037
:10099000774800F039F9774B774AC318934223D848
:1009A000AC4639000225754B42001B1A5B000193CF
:1009B000734F744BD7199F420CD8734B019F9A42C7
:1009C00001D9724BD718B94204D90096002F0BD029
:1009D000AC463900019B01351B1A01936C4B121870
:1009E0009D42E5D165460F000136222ECFD18C22E3
:1009F000009B023D023B5B022B4304251203134381
:100A000023620420FFF74EFD0420FFF74BFDE6684C
:100A1000236810202B432360FFF744FD07210F229A
:100A200023690B432361A3699343A36102232269D2
:100A30008A4313432361FFF741FBF60602D4236880
:100A4000AB432360F021534A534D136801268B4377
:100A500013608023514A1B0511680B431360FFF795
:100A60002DFB04236268FA201343636049232A683C
:100A70004B4C13432B6080231B02E362494B002144
:100A80002364494B494A636540235360484BC00087
:100A9000009221651861474807683E439027066029
:100AA000454EBF00996137600827444E376088275C
:100AB000434EBF003760434ED93FFF3F3760661C4F
:100AC000F177463F661DF7778027FF00BC466246F8
:100AD0003D4EF1513D4FF25392261F69F6003E43C1
:100AE0001E6180261F6976003E43009A1E611268CF
:100AF000374E5643374A5660916005311160802168
:100B0000490216680E42FCD00021116002680131D2
:100B10008A4302601022FF325A6019680A431A6041
:100B2000230030331B78002B18D0A0232322DB05B1
:100B30005A602B68223A93432B602B68013293430F
:100B40002B60BFF34F8F244B244ADA60BFF34F8FE3
:100B5000C046FDE7596058605C60F8E6FFF7B1FCFD
:100B6000DEE7C046FC000050FFFFFF880002005097
:100B700000805101FF95E7FFFEB9DB0000D8B80502
:100B8000001F0AFA00E1F50500B0710B00508EF469
:100B9000020200001802005000C00050080200507D
:100BA00018000020340D1000B102100000000020D9
:100BB000000006409000064008050640000506407B
:100BC00018050640100506407000002004040000CF
:100BD000A086010010E000E000ED00E00400FA054E
:100BE00002B4714649084900095C49008E4402BCC0
:100BF0007047C04603B47146490840004900095E89
:100C000049008E4403BC7047002934D001230022E0
:100C100010B488422CD301242407A14204D281427B
:100C200002D209011B01F8E7E400A14204D281428B
:100C300002D249005B00F8E7884201D3401A1A4308
:100C40004C08A04202D3001B5C0822438C08A0423F
:100C500002D3001B9C082243CC08A04202D3001BF5
:100C6000DC082243002803D01B0901D00909E3E76F
:100C7000100010BC704701B5002000F00BF802BD59
:100C80000029F8D003B5FFF7C1FF0EBC4243891A13
:100C90001847C0467047C04603008218934200D1EF
:100CA000704719700133F9E7124859210160162184
:100CB000016088210160104A104911600021016023
:100CC0000F481049104A914204D003680B60043069
:100CD0000431F8E70D490E4A0020914203D0086024
:100CE00004319142FBD3FFF7EBFBFFF72BFEFEE74E
:100CF000FEE7C0460001005024000050A55A000045
:100D0000A00D100000000020180000201800002096
:100D10007C040020001BB7000000000080F0FA02F5
:100D2000102700000000000000000000000000008C
:100D3000008051018D0D1000720D10000800002080
:100D4000000000000000000000000000040331006B
:100D50000E034E0075005F0044004600550010036E
:100D60004E00750076006F0074006F006E00040383
:100D7000090409021B00010100803209040000007F
:100D8000FE01010009210BFF000004100112010007
:100D900002000000401604F0BD0001010203010042
:100DA00032000000080000006E0D10005E0D100003
:080DB000500D10004C0D100065
:0400000500100CA932
:00000001FF
