:020000040010EA
:1000000000040020E90C1000310D1000310D10002B
:1000100000000000000000000000000000000000E0
:10002000000000000000000000000000310D100082
:100030000000000000000000310D1000310D100024
:10004000310D1000310D1000310D1000310D100078
:10005000310D1000310D1000310D100000000000B6
:10006000310D1000310D1000310D1000310D100058
:10007000310D1000310D1000310D1000310D100048
:10008000310D100000000000310D1000310D100086
:10009000310D1000310D100000000000C3041000ED
:1000A000310D100000000000310D1000310D100066
:1000B000310D1000310D1000310D1000A02213B5CC
:1000C0001E4B1F4C0193236AD202002013421BD106
:1000D000802000031840424250411A4A40421040DA
:1000E000194A80189A030FD4DA05D20D023280081B
:1000F00050431A0401A9920F8A5C9904C90E023177
:10010000514300F0A1FD8000072223691340022B18
:1001100005D04008012B02D00C4A9B0098580F23B1
:10012000A1690B4C1940013100F08EFD094B0A49C1
:10013000C01800F089FD206013BDC0460102020412
:1001400000020050009B65FF00805101540D10001B
:100150000000002020A1070040420F0000230F21D3
:10016000084A9A1812680A40824206D1064A9B1829
:10017000022219680A431A6070471033802BEFD1AE
:10018000FAE7C046080506400C050640002310B5F6
:10019000934200D110BDCC5CC4540133F8E7002277
:1001A000074B1B685843074B58609A6005321A602A
:1001B0008022520219681142FCD000221A60704756
:1001C0000000002010E000E0F8B5174D03006F6854
:1001D0000C00164A16491748174EA74213D26F68EB
:1001E000DF190F606F68E41B4C60802114682143A5
:1001F0001160006811496A6840181900FFF7C6FFCE
:100200006B683360F8BD00254D600D608021156876
:10021000294311600068094A190080182200FFF77D
:10022000B5FF3460EEE7C046000000200805064038
:1002300018000020000506400405064000010640A5
:100240000022044BDA6098601961034B5A68034B33
:100250001A607047180000200000002014050640B6
:10026000F0B50125194B1A4E1C68A407E40F6C4029
:10027000240509191419A14210D2CA055960D70DD5
:10028000002A18D121280AD0DF601D611A692A428C
:10029000FCD140271A683A4211D01A60F0BD2222E0
:1002A000DA60213A1A611F691742FCD12122DA6013
:1002B00032689A60E9E7D8602128E6D1F8E700289B
:1002C00001D19A68326004360431D4E700C000508E
:1002D00070000020F7B500276E4668466C4908227A
:1002E0006C4C7770FFF752FF337870787188F5881F
:1002F0007F2B64D9032807D0052842D002284AD092
:100300000020FFF72BFF45E0621CD37F032B2CD18D
:10031000636A01336362052B2BD1D3775E495F4B50
:100320005F4A595A9A5A212051438022D2009A5A40
:100330005218FFF795FF6762636A01336362052B0A
:1003400017D10622631CDA7700236362636A0133E4
:100350006362052B0DD10222631CDA7700236362EE
:100360002300013A28331A7003E0052BE4D0062B52
:10037000ECD0200006211C30FFF726FF00210800EA
:1003800006E0200001212030FFF71EFF3900380071
:10039000FFF756FFF7BD631CDA7F022A69D0092AEE
:1003A000F8D1002D69D102230134E377F2E7890205
:1003B00000204A19FFF754FF29003848DCE70628D7
:1003C0009ED800F023FC041F9D9D399D4200601CB7
:1003D000C27F092A11D89B239B00D34001210B42E5
:1003E0000BD002230022C3778020E318DA772B4B4F
:1003F0002277C00028341A50217000210800FFF72E
:10040000E3FEC7E7631CDB7F022B02D0052B00D085
:1004100076E706222148002D08D0214A8152023A6F
:100420008552022B01D11C4BC552032201342900F5
:10043000E277FFF705FFE0E700200222631C207748
:10044000A4180100DA77E077D9E7611CCA7F092A8E
:10045000D3D89B239B00D340DB07CED502230022B9
:10046000CB7780212277E4180C4BC900E2775A50F1
:10047000C3E7002D97D00922DA77E36A9B0A013B94
:100480008B4294D20223002101340800E37773E702
:100490002C00002018000020040400007000002040
:1004A00002040000044A0549CB680340984202D088
:1004B000013A002AF8D1704781F52000000200506F
:1004C00070470423F7B5B94C666827691E4208D007
:1004D00063606369DB0771D592232269DB001343F4
:1004E000236101231E422DD063601F421DD0922341
:1004F00000252269AE48DB001343236129004560D3
:100500000560C5608560056105630822143000F050
:10051000E3FB8021A74A2B019B181A6801358A4307
:100520001A60082DF6D10023A360BB0703D5102263
:100530002369934323617F0704D592232269DB005B
:100540001343236108231E4200D0636002273E420A
:1005500000D180E08023002E00DB63E11B06636096
:100560000123954E954C3268914D1A4332602268B2
:1005700028001343236000230822914914306B6341
:10058000FFF704FE60232A7D1340202B00D13CE1BD
:10059000402B60D0002B00D03DE12B606B6053B24C
:1005A000687D002B00DBBBE00A282BD800F038FB6D
:1005B000732A2A2A2A2A1A2A0A2A710080222369DF
:1005C00093438DE7AA6B7F4B7D491B68D2B25B18C2
:1005D0001A708023774A11680B43136001227A4B0B
:1005E0001A6034E02F000023E97E3C373B70AB7E7D
:1005F00009021943EB7D032B42D00BD8012B1FD0EE
:10060000022B29D0022332681A4332602268134336
:10061000236020E0222BF5D12E6C2C7E3369A400C0
:100620001D59A94209D9694B2800596800F048FBB7
:10063000002901D101233B702900F368185904E017
:10064000122900D912212B6C1868FFF7BDFD00217B
:100650000800FFF7F5FDF7BD2B6C5D68EC78AB7813
:1006600024021C43A14209D9584B2000596800F0CC
:1006700027FB002901D101233B7021002800E4E77A
:10068000AB7D032BBED82A6C9B0092689D582C78BA
:10069000E8E76A6C97E7474C802A1FD12B6C5B68B0
:1006A000DB795A06D20F9B0604D548352B785B00C0
:1006B0001A43D2B2434B42491B685B181A700020A0
:1006C000404B434A1B6801009B1818708023226826
:1006D0001343022223603C4B1A60BAE7812A05D1FA
:1006E000384B374A1B689B180022E7E7822AE6D17D
:1006F0000F2023002A7E374D0240196801409142A5
:1007000009D104332F4A1B682D4912689B075218E0
:10071000DB0F1370D3E71033AB42EED12E4BF1E772
:1007200001380A2800D96DE700F084FA0B006CFF4D
:100730005B006CFF3C006CFF6CFF6CFF58006CFFB3
:100740006800AB7D002B27D10F242A7E0227224090
:100750001600802294462D6B16491A01511808681C
:100760002040B0420CD101209840054208D11248E7
:1007700012181068B843106060460A6882430A6025
:100780000133082BE8D180230A4A11680B43136018
:1007900000220D4B1A605EE7012BF4D1002348358F
:1007A0002B70F0E7AB7DEB64EDE7C0460000064040
:1007B00018000020080506400C0506401C050640F0
:1007C0000001064000050640040506400000002028
:1007D000010106408805064078050640AB7DAB6305
:1007E000D1E7AB7D002B05D1287E0F331840FFF7F2
:1007F000B5FCC8E7012BC6D14835D1E7AB7D6B64AA
:100800002B6D002BBFD09847BDE76B6D002B00D13F
:1008100021E798471FE733683B43336023681F4352
:10082000276018E75B021E421ED03D4D63606B6877
:10083000002B54D02B683B4F696801937A683A4B80
:10084000186891423FD9394B7A68C0180199FFF76F
:100850009DFC7B68364A13607B68019AD3182B6035
:100860007A686B689B1A6B6080239B021E4200D1E2
:10087000F1E6E0222A4D6360E368696B9201134060
:100880008B4244D0E36813406B63EA682B699A4259
:1008900000D3E0E6274B284EAF6834681968234B35
:1008A00022003800C918FFF771FCEB683F19E41803
:1008B000EC60EA682B69AF609A4200D3CBE6194B33
:1008C0005B683360C7E6194B6A68C0180199FFF787
:1008D0005DFC6B68164A136000232B60C3E72B7D19
:1008E000002B0BD16B7D052B08D1A268EB6C9A42D3
:1008F00004D0A368002B01D1EB6CA3603C352B78AE
:10090000002BB1D000230A4A13602B70ACE7EA68D1
:100910002B699A4200D39EE6024B5A68064B39E790
:1009200018000020000000200005064000010640DD
:10093000040506401005064014050640F7B5592188
:10094000162088248F4B5A68012A00D0BFE0996B8B
:100950008D4A04261140882252058C4C0A439A6322
:100960002368102033432360FFF79CFD8023012779
:1009700000255B0223622368102033432360FFF7C6
:1009800091FD7F4200953100814800F05DF9814B77
:10099000814AC318934223D8AC46390002257F4BC5
:1009A00042001B1A5B0001937D4F7E4BD7199F427B
:1009B0000CD87D4B019F9A4201D97C4BD718B94284
:1009C00004D90096002F0BD0AC463900019B0135AD
:1009D0001B1A0193764B12189D42E5D165460F0014
:1009E0000136222ECFD18C22009B023D023B5B02BE
:1009F0002B4304251203134323620420FFF752FD07
:100A00000420FFF74FFDE668236810202B43236086
:100A1000FFF748FD07210F2223690B432361A369D8
:100A20009343A361022322698A4313432361FFF79F
:100A300045FBF60602D42368AB432360F0215D4AF0
:100A40005D4D1368C0278B43136080235B4A1B05F1
:100A500011685B4E0B431360FFF730FB2A68594B5C
:100A6000FA201A408023DB0313432B60AB68564AFD
:100A7000BF031340AB60336840003B433360FFF774
:100A80008EFBC023326929681B040B432B6033683B
:100A90001F4337604D4E52051DD5A023DB055B6813
:100AA0009B0618D4A0230322DB055A603368023A60
:100AB000934333603368013293433360BFF34F8F06
:100AC000434B444ADA60BFF34F8FC046FDE759609D
:100AD00058605C6037E70423626840211343636019
:100AE000492332683C4D1343336080231B02EB6281
:100AF0003A4B00222B643A4B3A4C6B653A4B3B4FD6
:100B00005960FA23DB002A6523613B683F390B43B8
:100B100090213B60364B8900A26119600821354B5A
:100B2000354819608821354B89001960344BD93913
:100B3000FF3919606B1C4639D9778021314BC900C8
:100B40002A775A50304A995292232269DB00134384
:100B50002361802322695B0013432361FFF71FFB9E
:100B600001213B688B433B601023FF3363602268A5
:100B7000134323602B0028331B78002B92D1FFF7FF
:100B8000A0FCF7E7FC000050FFFFFF8800020050C8
:100B900000805101FF95E7FFFEB9DB0000D8B805E2
:100BA000001F0AFA00E1F50500B0710B00508EF449
:100BB0000202000018020050C0400050080200501D
:100BC00040400050FFFF3FFFFFF7FFFF00C0005015
:100BD00000ED00E00400FA0518000020740D10007C
:100BE000D5021000000006400000002090000640E2
:100BF0000805064000050640A086010018050640CD
:100C000010050640700000200404000002B4714684
:100C100049084900095649008E4402BC7047C04645
:100C200002B4714649084900095C49008E4402BC7F
:100C30007047C04603B47146490840004900095E48
:100C400049008E4403BC7047002934D001230022A0
:100C500010B488422CD301242407A14204D281423B
:100C600002D209011B01F8E7E400A14204D281424B
:100C700002D249005B00F8E7884201D3401A1A43C8
:100C80004C08A04202D3001B5C0822438C08A042FF
:100C900002D3001B9C082243CC08A04202D3001BB5
:100CA000DC082243002803D01B0901D00909E3E72F
:100CB000100010BC704701B5002000F00BF802BD19
:100CC0000029F8D003B5FFF7C1FF0EBC4243891AD3
:100CD0001847C0467047C04603008218934200D1AF
:100CE000704719700133F9E7124859210160162144
:100CF000016088210160104A1049116000210160E3
:100D00000F481049104A914204D003680B60043028
:100D10000431F8E70D490E4A0020914203D00860E3
:100D200004319142FBD3FFF7CBFBFFF707FEFEE751
:100D3000FEE7C0460001005024000050A55A000004
:100D4000E00D100000000020180000201800002016
:100D50007C040020001BB7000000000080F0FA02B5
:100D6000102700000000000000000000000000004C
:100D700000805101CD0D1000B20D100008000020C0
:100D8000000000000000000000000000040331002B
:100D90000E034E0075005F0044004600550010032E
:100DA0004E00750076006F0074006F006E00040343
:100DB000090409021B00010100803209040000003F
:100DC000FE01010009210BFF0000041001120100C7
:100DD00002000000401604F0BD0001010203010002
:100DE0003200000008000000AE0D10009E0D100043
:080DF000900D10008C0D1000A5
:0400000500100CE9F2
:00000001FF
