:020000040010EA
:1000000000080020FD0C1000450D1000450D1000EB
:1000100000000000000000000000000000000000E0
:10002000000000000000000000000000450D10006E
:100030000000000000000000450D1000450D1000FC
:10004000450D1000450D1000450D1000450D100028
:10005000450D1000450D1000450D1000000000007A
:10006000450D1000450D1000450D1000450D100008
:10007000450D1000450D1000450D1000450D1000F8
:10008000450D100000000000450D1000450D10004A
:10009000450D1000450D1000000000008B041000FD
:1000A000450D100000000000450D1000450D10002A
:1000B000450D1000450D1000450D1000A02213B590
:1000C0001E4B1F4C0193236AD202002013421BD106
:1000D000802000031840424250411A4A40421040DA
:1000E000194A80189A030FD4DA05D20D023280081B
:1000F00050431A0401A9920F8A5C9904C90E023177
:10010000514300F0ABFD8000072223691340022B0E
:1001100005D04008012B02D00C4A9B0098580F23B1
:10012000A1690B4C1940013100F098FD094B0A49B7
:10013000C01800F093FD206013BDC0460102020408
:1001400000020050009B65FF00805101680D100007
:100150000008002020A1070040420F0000230F21CB
:10016000084A9A1812680A40824206D1064A9B1829
:10017000022219680A431A6070471033802BEFD1AE
:10018000FAE7C046080506400C050640002310B5F6
:10019000934200D110BDCC5CC4540133F8E7F8B5EC
:1001A000164D03006F680C00154A16491648174E85
:1001B000A74213D26F68DF190F606F68E41B4C60B1
:1001C0008021146821431160006811496A68401851
:1001D0001900FFF7DBFF6B683360F8BD00254D6049
:1001E0000D6080211568294311600068084A1900D4
:1001F00080182200FFF7CAFF3460EEE700080020F5
:1002000008050640180800200005064004050640C1
:10021000000106400022044BDA6098601961034B2C
:100220005A68034B1A607047180800200008002025
:1002300014050640F0B50125194B1A4E1C68A40799
:10024000E40F6C40240509191419A14210D2CA0503
:100250005960D70D002A18D121280AD0DF601D610E
:100260001A692A42FCD140271A683A4211D01A6012
:10027000F0BD2222DA60213A1A611F691742FCD1CF
:100280002122DA6032689A60E9E7D8602128E6D155
:10029000F8E7002801D19A68326004360431D4E7C7
:1002A00000C0005070080020F7B500276E46684671
:1002B0006A4908226A4C7770FFF768FF33787078D4
:1002C0007188F5887F2B63D9032807D0052841D092
:1002D000022849D00020FFF741FF44E0621CD37F91
:1002E000032B2BD1636A01336362052B2AD1D377A9
:1002F0005C4B5D4A991DD28FC98F02335143DA8F0F
:1003000021205218FFF796FF6762636A0133636228
:10031000052B17D10622631CDA7700236362636A18
:1003200001336362052B0DD10222631CDA770023AF
:1003300063622300013A28331A7003E0052BE4D0EE
:10034000062BECD0200006211C30FFF728FF0021EF
:10035000080006E0200001212030FFF720FF3900CF
:100360003800FFF757FFF7BD631CDA7F022A65D01C
:10037000092AF8D1002D65D102230134E377F2E791
:10038000890100204A19FFF755FF29003548DCE7AD
:1003900006289FD800F044FC041D9E9E379E400016
:1003A000611CCA7F092A0FD89B239B00D3400122DE
:1003B000134209D002200023C8772118CB7729499E
:1003C000237728340B64227000210800FFF7E7FE32
:1003D000C9E7631CDB7F022B02D0052B00D079E735
:1003E00006222048002D08D0021DD187821CD58707
:1003F000022B01D1831DDD87032201342900E2771E
:10040000FFF708FFE0E700200222631C2077A41812
:100410000100DA77E077D9E7621CD17F0929D3D8C8
:100420009B239B00CB40DB07CED502210023D17755
:100430000C4A23776418E3771364C5E7002D9BD03B
:100440000922DA77E36A9B09013B8B4298D20223A7
:10045000002101340800E37777E7C0462C0800202C
:10046000180800207008002074080020044A05497C
:10047000CB680340984202D0013A002AF8D1704775
:1004800081F520000002005070470423F7B5B94CF5
:10049000666827691E4208D063606369DB0771D50F
:1004A00092232269DB001343236101231E422DD0D6
:1004B00063601F421DD0922300252269AE48DB00F5
:1004C00013432361290045600560C56085600561AF
:1004D00005630822143000F009FC8021A74A2B0193
:1004E0009B181A6801358A431A60082DF6D100233B
:1004F000A360BB0703D510222369934323617F07C1
:1005000004D592232269DB001343236108231E4292
:1005100000D0636002273E4200D180E08023002E9D
:1005200000DB63E11B0663600123954E954C326846
:10053000914D1A4332602268280013432360002340
:100540000822914914306B63FFF720FE60232A7D57
:100550001340202B00D13CE1402B60D0002B00D079
:100560003DE12B606B6053B2687D002B00DBBBE08C
:100570000A282BD800F05EFB732A2A2A2A2A1A2A74
:100580000A2A71008022236993438DE7AA6B7F4B6F
:100590007D491B68D2B25B181A708023774A1168B4
:1005A0000B43136001227A4B1A6034E02F000023C2
:1005B000E97E3C373B70AB7E09021943EB7D032B90
:1005C00042D00BD8012B1FD0022B29D00223326836
:1005D0001A43326022681343236020E0222BF5D1B6
:1005E0002E6C2C7E3369A4001D59A94209D9694B90
:1005F0002800596800F06EFB002901D101233B70EF
:100600002900F368185904E0122900D912212B6C33
:100610001868FFF7C4FD00210800FFF7FBFDF7BDD8
:100620002B6C5D68EC78AB7824021C43A14209D99D
:10063000584B2000596800F04DFB002901D10123DF
:100640003B7021002800E4E7AB7D032BBED82A6C69
:100650009B0092689D582C78E8E76A6C97E7474CB6
:10066000802A1FD12B6C5B68DB795A06D20F9B0660
:1006700004D548352B785B001A43D2B2434B42492C
:100680001B685B181A700020404B434A1B6801002E
:100690009B181870802322681343022223603C4B6E
:1006A0001A60BAE7812A05D1384B374A1B689B1874
:1006B0000022E7E7822AE6D10F2023002A7E374D69
:1006C000024019680140914209D104332F4A1B6846
:1006D0002D4912689B075218DB0F1370D3E71033B4
:1006E000AB42EED12E4BF1E701380A2800D96DE775
:1006F00000F0AAFA0B006CFF5B006CFF3C006CFF83
:100700006CFF6CFF58006CFF6800AB7D002B27D19D
:100710000F242A7E022722401600802294462D6B49
:1007200016491A01511808682040B0420CD1012026
:100730009840054208D1124812181068B84310605A
:1007400060460A6882430A600133082BE8D180239F
:100750000A4A11680B43136000220D4B1A605EE7D2
:10076000012BF4D1002348352B70F0E7AB7DEB640F
:10077000EDE7C046000006401808002008050640C6
:100780000C0506401C050640000106400005064019
:1007900004050640000800200101064088050640C7
:1007A00078050640AB7DAB63D1E7AB7D002B05D16F
:1007B000287E0F331840FFF7D1FCC8E7012BC6D1C4
:1007C0004835D1E7AB7D6B642B6D002BBFD09847CC
:1007D000BDE76B6D002B00D121E798471FE7336819
:1007E0003B43336023681F43276018E75B021E42C8
:1007F0001ED03D4D63606B68002B54D02B683B4F7F
:10080000696801937A683A4B186891423FD9394B2D
:100810007A68C0180199FFF7B9FC7B68364A136003
:100820007B68019AD3182B607A686B689B1A6B609F
:1008300080239B021E4200D1F1E6E0222A4D636034
:10084000E368696B920113408B4244D0E368134024
:100850006B63EA682B699A4200D3E0E6274B284E87
:10086000AF6834681968234B22003800C918FFF7B5
:100870008DFCEB683F19E418EC60EA682B69AF6007
:100880009A4200D3CBE6194B5B683360C7E6194B3D
:100890006A68C0180199FFF779FC6B68164A136003
:1008A00000232B60C3E72B7D002B0BD16B7D052B29
:1008B00008D1A268EB6C9A4204D0A368002B01D146
:1008C000EB6CA3603C352B78002BB1D000230A4A97
:1008D00013602B70ACE7EA682B699A4200D39EE65E
:1008E000024B5A68064B39E7180800200008002020
:1008F00000050640000106400405064010050640BC
:100900001405064059211620F0B5A24B85B05A684F
:10091000012A4ED1A049A14E0A68A14D1640944625
:100920008022D200324320269E482C6807680A6045
:100930008A68B243C026B6042643C0248A600022D7
:10094000A4053C43984F2E6004600392039ABA4278
:1009500034D92A69076900920197C02762463F018E
:1009600017430F608021009A49010A4080212E60C0
:1009700004600198C90101400A4324D0A022D20595
:10098000526892061FD4A02303220121DB055A607E
:10099000864B1A688A431A601A6849188A431A6093
:1009A000BFF34F8F824B834ADA60BFF34F8FC0464D
:1009B000FDE78822596058605A60A8E7C046039A4C
:1009C00001320392C2E7996B7B4A042611408822C8
:1009D00052057A4C0A439A632368102033432360FC
:1009E000FFF744FD8023012700255B022362236873
:1009F000102033432360FFF739FD7F42009531001B
:100A00006F4800F02BF96F4B6F4AC318934223D8FD
:100A1000AC46390002256D4B42001B1A5B00019366
:100A20006B4F6C4BD7199F420CD86B4B019F9A426E
:100A300001D96A4BD718B94204D90096002F0BD0C0
:100A4000AC463900019B01351B1A0193644B121807
:100A50009D42E5D165460F000136222ECFD18C2272
:100A6000009B023D023B5B022B4304251203134310
:100A700023620420FFF7FAFC0420FFF7F7FCE66886
:100A8000236810202B432360FFF7F0FC07210F227F
:100A900023690B432361A3699343A3610223226962
:100AA0008A4313432361FFF709FBF60602D4236848
:100AB000AB432360F0214B4A4026136801258B434A
:100AC00013608023484A1B0511680B431360FFF72E
:100AD000F5FA04236268FA20134363604923334A1A
:100AE000424C1168C0000B431360802300211B029D
:100AF000E3623F4B3F4A23643F4B566063653F4B85
:100B0000216518613E4807683D43902705603D4DCB
:100B1000BF0099612F6008273B4D2F6088273B4D10
:100B2000BF002F603A4DD93FFF3F2F60651C463F05
:100B3000EF77384D217729640635EE8792251E69B7
:100B4000ED0035431D6180251E696D0035431D6133
:100B50001268314D5543314A55609160053111603D
:100B60008021490215680D42FCD000211160026805
:100B700001318A4302601022FF325A6019680A4329
:100B80001A60230028331B78002B00D0FBE6FFF708
:100B90007CFCF6E7FC00005040400050FFF3FFFFF4
:100BA00080400050004000501F4E000000C0005028
:100BB00000ED00E00400FA05FFFFFF88000200508E
:100BC00000805101FF95E7FFFEB9DB0000D8B805B2
:100BD000001F0AFA00E1F50500B0710B00508EF419
:100BE00002020000180200500802005018080020FD
:100BF000880D100000080020A90210000000064027
:100C0000900006400805064000050640180506400D
:100C10001005064070080020A086010010E000E0EA
:100C200002B4714649084900095649008E4402BC85
:100C30007047C04602B4714649084900095C490042
:100C40008E4402BC7047C04603B471464908400058
:100C50004900095E49008E4403BC7047002934D026
:100C60000123002210B488422CD301242407A1427E
:100C700004D2814202D209011B01F8E7E400A1423B
:100C800004D2814202D249005B00F8E7884201D3D6
:100C9000401A1A434C08A04202D3001B5C082243AE
:100CA0008C08A04202D3001B9C082243CC08A0421F
:100CB00002D3001BDC082243002803D01B0901D00B
:100CC0000909E3E7100010BC704701B5002000F0EF
:100CD0000BF802BD0029F8D003B5FFF7C1FF0EBC29
:100CE0004243891A1847C0467047C046030082181D
:100CF000934200D1704719700133F9E71248592126
:100D000001601621016088210160104A10491160BC
:100D1000002101600F481049104A914204D0036835
:100D20000B6004300431F8E70D490E4A002091426F
:100D300003D0086004319142FBD3FFF7A5FBFFF716
:100D4000E1FDFEE7FEE7C046000100502400005030
:100D5000A55A0000F80D1000000800201808002017
:100D600018080020BC080020001BB700000000008D
:100D700080F0FA02102700000000000000000000D0
:100D80000000000000805101E50D1000CA0D1000A8
:100D90000808002000000000000000000000000023
:100DA000D0C36F46040331000E034E0075005F0090
:100DB00044004600550010034E00750076006F0099
:100DC00074006F006E000403090409021B00010196
:100DD0000080320904000000FE01010009210BFF20
:100DE000004000100112010002000000401604F053
:080DF000BD0001010203010036
:100DF8003200000008000000C60D1000B60D1000FB
:080E0800A80D1000A40D10005C
:0400000500100CFDDE
:00000001FF
